:020000040800F2
:10000000B80700204D0200086F250008451E0008B3
:100010006D250008430400083D2D00080000000085
:100020000000000000000000000000009728000809
:100030004504000800000000212800089928000855
:1000400067020008670200086702000867020008EC
:1000500067020008670200086702000867020008DC
:1000600067020008670200086702000867020008CC
:1000700067020008670200086702000867020008BC
:1000800067020008670200086702000867020008AC
:10009000670200086702000867020008670200089C
:1000A000512900086702000867020008670200087B
:1000B000670200086702000867020008670200087C
:1000C000670200086702000867020008670200086C
:1000D000670200086702000867020008670200085C
:1000E000670200086702000867020008670200084C
:1000F000670200086702000867020008670200083C
:10010000670200086702000867020008670200082B
:10011000670200086702000867020008670200081B
:10012000670200086702000867020008670200080B
:1001300067020008670200086702000867020008FB
:1001400067020008670200086702000867020008EB
:1001500067020008670200086702000867020008DB
:1001600067020008670200086702000867020008CB
:10017000670200086702000867020008000000002C
:1001800067020008670200086702000867020008AB
:10019000670200086702000867020008670200089B
:1001A00067020008670200086702000800F002F812
:1001B00000F03CF80AA090E8000C82448344AAF1C5
:1001C0000107DA4501D100F031F8AFF2090EBAE8C3
:1001D0000F0013F0010F18BFFB1A43F0010318477B
:1001E00098380000B8380000103A24BF78C878C1A9
:1001F000FAD8520724BF30C830C144BF04680C602D
:10020000704700000023002400250026103A28BF74
:1002100078C1FBD8520728BF30C148BF0B60704778
:100220001FB503F012FC1FBD10B510BD00F0CFF8D4
:100230001146FFF7F5FF02F01FFE00F0EDF803B4E2
:10024000FFF7F2FF03BC00F0F5F800000948804713
:1002500009480047FEE7FEE7FEE7FEE7FEE7FEE7A8
:10026000FEE7FEE7FEE7FEE704480549054A064BC0
:100270007047000041290008AD010008B8010020C6
:10028000B8070020B8030020B803002053EA020C8E
:1002900000F069802DE9F04B4FF00006002B1FBFE6
:1002A000B3FA83F503FA05F424FA05F65E4012BFAB
:1002B0001643B2FA82F502FA05F4C5F120051EBF15
:1002C00022FA05FC44EA0C04203556EA044C4FEAB5
:1002D000144418BF641C4FF000084FF0000990420E
:1002E00071EB030C39D3002919BFB1FA81F701FA78
:1002F00007F6B0FA80F700FA07F6C7F120071EBF2D
:1003000020FA07FC46EA0C062037B6FBF4FCA7EB04
:100310000507103F07F01F0BCBF120060CFA0BFB73
:100320002CFA06F644BFB3460026202FA4BF5E4633
:100330004FF0000B5BEA060C08BF4FF0010B19EB06
:100340000B09ABFB027C48EB0608C01B06FB02CC8A
:100350000BFB03CC71EB0C01C1E70B460246414697
:100360004846BDE8F08B13B54FF000004FF0000198
:10037000AFF30080BDE81C4070474FF0000200B5AD
:10038000134694469646203922BFA0E80C50A0E8B8
:100390000C50B1F12001BFF4F7AF090728BFA0E866
:1003A0000C5048BF0CC05DF804EB890028BF40F832
:1003B000042B08BF704748BF20F8022B11F0804F74
:1003C00018BF00F8012B704770477047704775469B
:1003D00000F02CF8AE4605006946534620F00700B1
:1003E000854618B020B5FFF73FFFBDE820404FF02D
:1003F00000064FF000074FF000084FF0000B21F00F
:100400000701AC46ACE8C009ACE8C009ACE8C009DB
:10041000ACE8C0098D46704710B50446AFF30080C4
:100420002046BDE81040FFF70ABF000000487047B3
:100430005801002001491820ABBEFEE7260002004B
:100440007047FEE7704772B6FEE7000070B50446DD
:1004500000F02EF90546601C02D0044800780444E0
:1004600000F026F9401BA042FAD370BD0400002022
:100470002DE9F84FDFF8F8A10022012403254FF001
:100480000F090AF1040BAAF1040E00BF0B6804FA6D
:1004900002F63340B34270D10F7907F00307012F02
:1004A00001D0022F16D187684FEA420805FA08FCEE
:1004B00027EA0C07D1F80CC00CFA08FC4CEA070C30
:1004C000C0F808C04768B7430E79C6F300169640D7
:1004D0003E4346600E79F643B6070AD0C7684FEA36
:1004E000420C05FA0CF6B7438E6806FA0CF63E434A
:1004F000C6600E7906F00306022E10D1D60800EB76
:100500008608D8F8206057074FEAD76C09FA0CF72D
:10051000BE430F6907FA0CF73743C8F82070066826
:100520004FEA420C05FA0CF7BE430F7907F00307B8
:1005300007FA0CF7374307604E6816F4403F1CD0AB
:100540004C4E376847F480473760366822F003071F
:1005500006F480460096484E07EB060CDCF8086867
:1005600097073F0F09FA07F826EA0806DFF80C811B
:10057000404503D14FF0000841E072E0DFF8008110
:10058000404502D14FF0010839E0DFF8F8804045DE
:1005900002D14FF0020832E0DFF8EC80404502D192
:1005A0004FF003082BE0DFF8E480404502D14FF024
:1005B000040824E0DFF8D880404502D14FF0050858
:1005C0001DE0DFF8D080404502D14FF0060816E06C
:1005D000DFF8C480404502D14FF007080FE0DFF894
:1005E000BC80404502D14FF0080808E0DFF8B08039
:1005F000404502D14FF0090801E04FF00A0808FA1F
:1006000007F848EA0608CCF80888DAF80060574688
:10061000D1F804C09E435FEACC2C00D51E433E6057
:10062000DBF800605F46D1F804C09E435FEA8C2C83
:1006300000D51E433E60DEF800607746D1F804C066
:100640009E435FEA8C3C00D51E433E60084F083F46
:100650003E68D1F804C09E435FEACC3C00D51E43FF
:100660003E60521C102AFFF411AFBDE8F88F000065
:10067000083C014044380240003001400000024084
:100680000004024000080240000C0240001002403A
:100690000014024000180240001C024000200240EA
:1006A000002402400AB1816170470904FBE70000A1
:1006B00001488068704700000400002090F83D2049
:1006C000202A01D002207047242280F83D200268B1
:1006D000136823F0010313600268536A23F01003C8
:1006E00053620268536A0B43536201680A6842F01E
:1006F00001020A60202180F83D100020704790F828
:100700003D20202A01D002207047242280F83D207D
:100710000268136823F00103136003685A6A22F029
:100720000F020A4391B2596201680A6842F001025D
:100730000A60202180F83D100020704770B5040049
:1007400025D094F83D00002520B984F83C5020467F
:1007500000F0E2FA242084F83D002068016821F0CE
:10076000010101602068016841F4004101602068D6
:10077000016821F40041016000F098FD4D4A616874
:10078000914201D84C4900E04C49884201D20120F5
:1007900070BD4B492368B0FBF1F15E6826F03F065F
:1007A0000E435E606368934206D94FF496735943D3
:1007B0004FF47A73B1FBF3F12368491C1E6A26F0EB
:1007C0003F06314319626168914210D84900401ECA
:1007D000B0FBF1F2521CC2F30B02042A01D2042036
:1007E00022E0B0FBF1F0401CC0F30B001CE0A2685B
:1007F000F2B301EBC10303EB0116431EB3FBF6F3A7
:100800005B1C43F480431B0549D092B301EBC1024A
:1008100002EB0111401EB0FBF1F0401CC0F30B00D5
:1008200040F4804040F400402168CA694CF6FF73F0
:100830009A431043C861D4E9071001432068026855
:1008400022F0C00211430160D4E903010143206892
:10085000826848F2FF339A4311438160D4E905016D
:1008600008432168CA6822F0FF021043C86001E013
:100870000EE016E02068016841F001010160256486
:10088000202084F83D00256384F83E50002070BD90
:1008900001EB4106431EB3FBF6F35B1CB3E70120FB
:1008A000C2E701EB4101401EB0FBF1F0401CC0F378
:1008B0000B00B7E7A086010080841E0000093D0000
:1008C00040420F002DE9F84F1F4690468A460446E5
:1008D000DDF82890FFF7ECFE054694F83D0020284F
:1008E0007FD11923012240492046009501F008FCE0
:1008F000002876D194F83C00012872D0012084F8B9
:100900003C0020680168C90703D1016841F001017A
:1009100001602068016821F400610160212084F8F1
:100920003D00102084F83E0000262664C4F8248090
:100930006785608D20852D48E0622B464A465146EA
:10094000204601F097FA90B92068416980690090CB
:1009500036E02A464946204601F084FC50B1206C1E
:10096000042804D12068016841F40071016001206D
:10097000BDE8F88F606A216800780861606A401CF1
:100980006062618D491E6185218D491E89B2218574
:1009900022685369DB435B070BD451B100781061C7
:1009A000606A401C6062608D401E6085208D401E24
:1009B00020852A464946204601F07CFB0028CED1FE
:1009C000208D0028C5D154F83D0B016841F4007119
:1009D0000160202004F81E09E67766770020C7E74B
:1009E000FFE70220C4E70000020010000000FFFF44
:1009F0002DE9FF4F83B09A46DDE9119793460446EF
:100A0000DDF84080FFF754FE054694F83D002028AD
:100A100070D11923012271492046009501F070FB25
:100A20000028F5D194F83C00012863D0012084F817
:100A30003C0020680168C90703D1016841F0010149
:100A400001602068016821F400610160222084F8BF
:100A50003D00402084F83E0000262664C4F824802F
:100A6000A4F82A90608D20855D48E062CDE900758C
:100A700053465A462046049901F04AFA00287CD190
:100A8000208DD0B1012821D00228206824D04169CE
:100A900080690090208D032869D801282BD0514906
:100AA00002283B464FF00002009559D08846204668
:100AB00001F026FB002860D13CE020684169816993
:100AC0000091016841F40071016077E020680168DD
:100AD00021F480610160F0E7016821F48061016028
:100AE0002068016841F40061016020684169806903
:100AF000009063E06FE02A463946204601F07FFB14
:100B000098BB20680069616A08704EE0206801683F
:100B100041F40071016020680069616A0870606AD0
:100B2000401C6062218D491E2185618D491E6185B1
:100B3000216838E02068016821F480610160206844
:100B40000069616A0870606A401C6062208D401E06
:100B50002085608D401E60853B4600224146009501
:100B6000204601F0CDFA00B9D0E706E0FFE72A46BB
:100B70003946204601F043FB18B1012007B0BDE81B
:100B8000F08F20680069616A0870606A401C6062CA
:100B9000218D491E2185618D491E618521684A6923
:100BA000D24352070AD409690170606A401C60622E
:100BB000208D401E2085608D401E6085208D002880
:100BC0007FF468AF202084F83D0084F83E6084F80C
:100BD0003C600020D2E70220D0E7000002001000B5
:100BE0000000FFFF040001002DE9FF4F83B09A468B
:100BF000DDE9119793460446DDF84080FFF758FD84
:100C0000054694F83D0020287FD119230122404950
:100C10002046009501F074FA002876D194F83C0043
:100C2000012872D0012084F83C0020680168C907BF
:100C300003D1016841F0010101602068016821F4DD
:100C400000610160212084F83D00402084F83E00CE
:100C500000262664C4F82480A4F82A90608D20859C
:100C60002C48E062CDE9007553465A462046049967
:100C700001F0CCF970B930E02A463946204601F03F
:100C8000F1FA58B1206C042804D12068016841F4BD
:100C900000710160012007B0BDE8F08F606A216833
:100CA00000780861606A401C6062218D491E89B22B
:100CB0002185628D521E628522685369DB435B0782
:100CC0000BD469B100781061606A401C6062208DAD
:100CD000401E2085608D401E6085208D0028CBD170
:100CE0002A463946204601F0E5F90028CAD154F8D1
:100CF0003D0B016841F400710160202004F81E09D9
:100D0000E67766770020C6E7FFE70220C3E700002A
:100D1000020010000000FFFF10B586B00446142149
:100D20006846FFF72AFB1349206888421FD1124802
:100D30000021026842F0200202600068122200F0E6
:100D4000200005900320CDE90210CDE90002042027
:100D5000049069460948FFF78BFB0748103001688B
:100D600041F480010160006800F48000059006B045
:100D700010BD00000058004030380240001402400E
:100D800002488168027811448160704704000020A5
:100D90000B4810B5016841F400710160016841F42D
:100DA00080610160016841F480710160032000F0FE
:100DB0006FF8002000F006F800F024F8002010BDC5
:100DC000003C024070B50D4D04464FF47A7128780E
:100DD000B1FBF0F00A490968B1FBF0F000F0EBFC60
:100DE00048B9102C07D200222146501E00F030F8DE
:100DF00000206C6070BD012070BD00000400002068
:100E0000100000200A4808B5016841F480410160E3
:100E1000006800F4804000900548001F016841F020
:100E200080510160006800F08050009008BD000013
:100E300044380240002809DB00F01F0201219140E4
:100E40004009800000F1E020C0F800117047000068
:100E5000F0B40E4B1B680C46C3F30223C3F1070525
:100E6000042D00D90425191D072901D2002300E013
:100E7000DB1E012606FA05F1491E214099409E40DD
:100E8000761E16403143F0BC01F059BF0CED00E076
:100E9000064900F0070208684FF6FF03184040EAD1
:100EA0000220034A10430860704700000CED00E088
:100EB0000000FA052DE9F8431748016841F0805118
:100EC00001600068154F00F08050012600903E64DC
:100ED000FFF7EEFB05464FF47A78114C05E000BFB2
:100EE000FFF7E6FB401B40450DD86068C003F7D50F
:100EF0007E64FFF7DDFB0546464607E0FFF7D8FBBB
:100F0000401BB04202D90320BDE8F883606880032B
:100F1000F4D50020F8E700004038024000000E42FF
:100F2000007000402DE9F84F04460068DFF824A265
:100F3000894F8A4DC1074FF001084FF0000603D1D9
:100F4000810701D4400648D5CAF86860FFF7B0FBB6
:100F5000814605E0FFF7ACFBA0EB090002287DD835
:100F600028680001F6D42078C1077D4805D0616863
:100F7000227A890141EA027101602178890711D53D
:100F800001686268237B9201C1F3027142EA036245
:100F900042EA017101603968E26921F01F01521EC5
:100FA000114339602178490608D56168227B89019F
:100FB00041EA0261227A41EA02710160CAF868805E
:100FC000FFF776FB814605E0FFF772FBA0EB090017
:100FD000022843D828680001F6D52068410701D4CB
:100FE00000074ED5CAF87060FFF762FB814605E046
:100FF000FFF75EFBA0EB090002282FD82868C0434A
:101000008000F5D520784107564814D5016822693B
:10101000237D9201C1F3027142EA036242EA017147
:1010200001603968226A6FF0FF0321F4F85103EB85
:101030000222114339602178090712D5016822691B
:10104000C1F30361920142EA0161227E41EA027129
:1010500001603868616A20F4403000E051E00843E4
:101060003860CAF87080FFF723FB074605E000BF31
:10107000FFF71EFBC01B022843D82868C04380002E
:10108000F6D42078800653D534484030016841F0CA
:10109000805101600068344D00F080500090286855
:1010A00040F480702860FFF703FB074605E000BFAF
:1010B000FFF7FEFAC01B022823D82868C005F7D521
:1010C000274D143D286810F4407020D0218D01F484
:1010D000407181421BD0286820F440712348C0F839
:1010E0000080066029602868C00710D0FFF7E0FA8A
:1010F000064641F2883707E0FFF7DAFA801BB8426C
:1011000002D90320BDE8F88F28688007F4D5A16ACA
:101110001248C1F301220830032A13D0016821F4D8
:10112000F81101602868218DC1F30B010843286084
:101130002078C00604D50E4994F82C00C1F8E001CF
:101140000020DFE702680B4B22F4F81219400A4333
:101150000260E7E7000047428C3802400038024056
:10116000843802408838024000700040400E4742F8
:1011700000104742FFFCFF0F2DE9F0470E46050027
:1011800065D0DFF81481D8F80000F7B200F00F0046
:10119000B04207D288F80070D8F8000000F00F00C5
:1011A000B04254D128683D4C810712D5400703D581
:1011B000206840F4E05020602878000703D52068BC
:1011C00040F4604020602068A96820F0F0000843E7
:1011D00020602878C0072DD0304968680839012878
:1011E00012D0022813D0032811D0096889070029DA
:1011F0002DDA216821F0030101432160FFF758FA3D
:10120000814641F2883A0EE009688903EFE70968F0
:101210008901ECE7FFF74CFAA0EB0901514502D92F
:101220000320BDE8F0872068696800F00C00B0EB8F
:10123000810FEFD1D8F80010404601F00F01B14204
:1012400007D90770006800F00F00B04201D00120FC
:10125000E7E72878400705D52068E96820F4E050E2
:10126000084320602878000706D52068296920F403
:10127000604040EAC100206000F038F82168084A68
:10128000C1F30311515CC840064908600648006874
:10129000FFF798FD0020C4E7003C024008380240F8
:1012A0005E3A0008100000200800002004480549AC
:1012B00000680968044AC1F38221515CC840704744
:1012C00010000020083802406E3A00080448054922
:1012D00000680968044AC1F34231515CC840704754
:1012E00010000020083802406E3A0008154810B57A
:1012F000006810F00C02144813D04110042A0FD0DB
:10130000082A0ED10F4C241F2268236802F03F02E6
:101310005B0207D52068C0F38810A0FB010106E03E
:10132000084610BD2168C1F38811A1FB000100230C
:10133000FEF7ACFF2168C1F30141491C4900B0FB35
:10134000F1F010BD083802400024F4002DE9F84FF8
:1013500004006ED02078DFF84C93C007A9F1040593
:101360004AD009F104000168C1F38101012908D0C4
:101370000068C0F3810002280AD1D9F800004002B9
:1013800006D52868800337D560680028E1D033E0AF
:101390006068B0F5803F10D0B0F5A02F286810D05D
:1013A00020F480302860286820F48020286060685D
:1013B000A8B1FFF77DF906460DE0286840F48030BB
:1013C000F4E740F480202860F7E700BFFFF770F9EA
:1013D000801B642873D828688003F7D50CE0FFF7DA
:1013E00067F9064605E000BFFFF762F9801B642835
:1013F000F0D828688003F7D42078DFF8AC82800723
:101400004FF0000A3ED5A748001D016811F00C0FEF
:1014100008D00068C0F3810002280BD1D9F8000081
:10142000400207D42868800716D5E068012800D15B
:1014300012E033E1E068B8B10120C8F80000FFF71E
:1014400037F9064605E000BFFFF732F9801B022896
:10145000C0D828688007F7D52868216920F0F800EF
:1014600040EAC10028600DE0C8F800A0FFF720F9AD
:10147000064604E0FFF71CF9801B02281FD82868E5
:101480008007F7D42078000722D5864F8748616906
:10149000703771B101210160FFF70AF9064604E0D7
:1014A000FFF706F9801B022809D838688007F7D5AE
:1014B0000EE0C0F800A0FFF7FBF8064605E082E06A
:1014C000FFF7F6F8801B02287DD838688007F7D42C
:1014D0002078400768D5DFF8CCB100270BF13C0B32
:1014E000DBF80000C0000BD4DBF8001041F08051A5
:1014F000CBF80010DBF80000012700F080500090CE
:101500006B4E3068C00510D4306840F48070306095
:10151000FFF7CEF8009005E0FFF7CAF80099401AEF
:10152000022850D83068C005F6D55E4EA0686C36EB
:1015300001280FD00528306810D020F0010030605D
:10154000306820F004003060A068B8B1FFF7B0F850
:1015500000900FE0306840F00100F4E740F0040034
:101560003060F7E7FFF7A4F80099411A41F288309C
:10157000814266D830688007F4D50EE0FFF798F80E
:10158000009007E0FFF794F80099411A41F2883083
:10159000814256D830688007F4D42FB1DBF80010B0
:1015A00021F08051CBF80010A069C8B33D49091D56
:1015B0000968C1F3810102294AD00228504607D0A8
:1015C000C8F8600000E03CE0FFF772F804463BE03A
:1015D0004746C8F86000FFF76BF8064605E000BF15
:1015E000FFF766F8801B02282BD828688001F7D403
:1015F000D4E907010843A16A2E4A490802EB0141D8
:10160000626A41EA8211084394F82C1040EA0161B1
:10161000C9F8001001203866FFF74AF8044606E0D2
:101620003EE000BFFFF744F8001B022809D82868F5
:101630008001F7D534E000BFFFF73AF8001B02281D
:1016400002D90320BDE8F88F28688001F4D427E090
:101650000128F7D0D9F80000E26900F48001914236
:101660001CD1226A00F03F01914217D147F6C071A8
:10167000626A0140B1EB821F10D1A26A4FF0FF33C2
:1016800000F4403103EB5202B1EB024F06D194F863
:101690002C1000F07060B0EB016F01D00120D1E799
:1016A0000020CFE70438024000004742800E474246
:1016B000007000400000FFFF10B5040002D0607F02
:1016C00010B106E0012010BD00202077204600F078
:1016D00039F8022060772168CA20486221685320C7
:1016E0004862204601F09EF830BB20688168144AA9
:1016F000114081602168886862681043D4E904233E
:101700001A43104388602168E06808612068016915
:10171000228941EA02410161204601F0A7F858B947
:1017200021680A6C22F480220A6421680A6CA36989
:101730001A430A64012161772268FF21516210BDBA
:10174000BFFF8FFF10B58CB0044630216846FEF70E
:1017500014FE0949206888420CD120200090000125
:101760000A906846FFF7DEFB08B1FEF76CFE0349FE
:10177000012008600CB010BD002800403C0E47421C
:1017800070B504460068C16821F0A001C160FEF791
:101790008FFF05464FF47A7607E000BFFEF788FF1B
:1017A000401BB04201D9032070BD2068C06880068C
:1017B000F4D5002070BD10B5401EB0F1807F01D37C
:1017C000012010BD4FF0E02460610F21601701F08F
:1017D000B6FA0020A06107202061002010BD7047EC
:1017E000704710B5040003D094F83D0010B107E035
:1017F000012010BD002084F83C00204600F01EF8B7
:10180000022084F83D00211D206801F0A7F8012086
:1018100084F8460084F83E0084F83F0084F84000D5
:1018200084F8410084F8420084F8430084F84400BE
:1018300084F8450084F83D00002010BD08B500681C
:101840000B49884212D10B48016841F48031016094
:101850000068002200F48030009011461820FFF745
:10186000F7FABDE808401820FFF7E4BA08BD000009
:10187000004001404438024070B5044690F83C00F6
:101880000025012817D0012684F83C60022084F846
:101890003D002068826822F0770222F47F42826055
:1018A0000868502838D00DDC20284FD005DC90B3D4
:1018B000102811D14AE0022070BD302846D04028BF
:1018C0000AD13BE060282FD070280DD0B0F5805FA2
:1018D00003D0B0F5005F12D0012584F83D600020F0
:1018E00084F83C00284670BDCB68D1E9012120680E
:1018F00001F0A5F82068816841F0770109E0CB6824
:10190000D1E90121206801F09AF82068816841F44A
:1019100080418160E1E719E0CA684968206801F008
:1019200063F95021206806E0CA684968206801F020
:101930006CF96021206801F08CF8CEE7CA6849682C
:10194000206801F051F940212068F4E7226801463F
:101950001046F0E7704770B50446006801694FF023
:101960000005C943890715D4C168C943890711D443
:10197000E91E0161012020772068806980072046E8
:1019800002D0FFF7E7FF04E000F0C2F8204600F0C5
:1019900054F9257720680169C943490717D4C168FC
:1019A000C943490713D46FF0040101610220207775
:1019B0002068806910F4407F204602D0FFF7CAFFFC
:1019C00004E000F0A5F8204600F037F925772068FC
:1019D0000169C943090716D4C168C943090712D46C
:1019E0006FF008010161042020772068C06980073A
:1019F000204602D0FFF7AEFF04E000F089F8204651
:101A000000F01BF9257720680169C943C90617D47E
:101A1000C168C943C90613D46FF0100101610820E1
:101A200020772068C06910F4407F204602D0FFF77D
:101A300091FF04E000F06CF8204600F0FEF82577F6
:101A400020680169C943C90708D1C168C943C907EA
:101A500004D1891E0161204600F054F92068016913
:101A6000C943090609D4C168C943090605D46FF002
:101A7000800101612046FFF7B2FE20680169C94379
:101A8000490609D4C168C943490605D46FF040012D
:101A90000161204600F037F920680169C9438906D1
:101AA0000BD4C168C943890607D46FF020010161D6
:101AB0002046BDE87040FFF793BE70BD10B586B0FC
:101AC000044614216846FEF758FC0E4920688842F7
:101AD00015D10D480021026842F010020260006832
:101AE00000F010000590202000900220CDE90101B7
:101AF0000320CDE9031069460448FEF7B9FC06B09F
:101B000010BD00000040014030380240001002408B
:101B1000704770B5044690F83C0000260D46012839
:101B20000FD0012084F83C006AB1042A1DD0082A95
:101B30002FD00C2A3FD00126002084F83C003046EC
:101B400070BD022070BD206800F08CFF20688169A4
:101B500041F0080181612068816921F004018161FF
:101B6000206881692A69114311E0206800F0AAFF0A
:101B70002068816941F4006181612068816921F4F4
:101B800080618161206881692A6941EA022181615D
:101B9000D2E7206800F0CCFF2068C16941F008015D
:101BA000C1612068C16921F00401C1612068C16977
:101BB0002A69114311E0206800F0EEFF2068C16936
:101BC00041F40061C1612068C16921F48061C16193
:101BD0002068C1692A6941EA0221C161ACE710B5F8
:101BE000040003D094F83D0010B107E0012010BDBF
:101BF000002084F83C00204600F01EF8022084F803
:101C00003D00211D206800F0A9FE012084F8460057
:101C100084F83E0084F83F0084F8400084F84100D6
:101C200084F8420084F8430084F8440084F84500B6
:101C300084F83D00002010BD7047704710B5044681
:101C4000022249B104290ED0082913D094F841008A
:101C5000012816D0012010BD94F83E000128F9D1CA
:101C600084F83E200FE094F83F000128F2D184F878
:101C70003F2008E094F840000128EBD184F8402090
:101C800001E084F841200122206800F0CBFE1649D3
:101C90002068164A884201D0904203D1436C43F435
:101CA000004343642068884213D0B0F1804F10D0C5
:101CB0000F4988420DD00F4988420AD00E49884208
:101CC00007D0904205D00D49884202D00C49884285
:101CD00004D1816801F00701062903D0016841F0B1
:101CE00001010160002010BD00000140000401401E
:101CF0000004004000080040000C0040004001408B
:101D0000001800407047704770B5040004D094F884
:101D10003D00002510B106E0012070BD84F83C5064
:101D2000204600F023F8242084F83D002068C16894
:101D300021F40051C160204600F07AFF206801695B
:101D400021F4904101612068416921F02A0141613B
:101D50002068C16841F40051C1602564202084F8E6
:101D60003D0084F83E00002070BD00002DE9F041E8
:101D700086B0044614216846FEF7FFFA2D492C4B25
:101D8000226800242B48103902250326DFF8A8809A
:101D90009A422BD1026842F480120260006800F47B
:101DA00080100590086840F004000860086800F0A2
:101DB00004000590086840F008000860086802AA5E
:101DC00000F0080005908814CDE90005082782E896
:101DD000D00069461948FEF74BFB0420CDE9000509
:101DE00002AA694682E8D00040461CE0144B9A42A1
:101DF0001BD1026842F480220260006800F4802057
:101E00000590086840F0080008600868029400F037
:101E1000080005904FF44070CDE900050720CDE99A
:101E2000036069464046FEF723FB06B0BDE8F0813B
:101E30000050004040380240000C024000080240C0
:101E400000480040FEE701684A69D24352050FD4BA
:101E50006FF480624A61002140F8301F20224273F3
:101E60008173026942F0040202610173012070472C
:101E700000207047F8B50446C06A1E460D46174656
:101E8000082807D0012805D010F5803F02D0206B2C
:101E9000122804D12068016841F480710160134662
:101EA00000224FF001112046009600F029F940B1C0
:101EB00020680068C00502D54FF40070206403203C
:101EC000F8BD2069B0F5804F0ED00620216800EAE9
:101ED000D51040F0F000086133463A460B492046E1
:101EE00000F042F978B902E005F0FE0000E0E8B247
:101EF00021680861054933463A46891F204600F0AB
:101F000033F90028DCD00120F8BD000008000100F2
:101F10002DE9F84F0446006889460B9D01689846F4
:101F2000174641F4806101602068016841F48071C6
:101F3000016000954FF0011B0022594620460A9B84
:101F400000F0DEF84FF4007A40B120680068C00568
:101F500001D5C4F840A00320BDE8F88F216809F03E
:101F6000FE0008612B46284920460A9A00F0FCF83A
:101F7000F0BB20684169806900902A4620460A9992
:101F800000F070F940B1206C04283AD12068016853
:101F900041F40071016034E0FEB2B8F1010F09D0E4
:101FA0002168380A08612A4620460A9900F05AF941
:101FB0000028E8D1206806612A4620460A9900F0E8
:101FC00051F90028DFD12068016841F48071016077
:101FD00000950022594620460A9B00F091F80028FF
:101FE000B3D1216809F0FF0040F00100086100E072
:101FF00007E02B46044920460A9A00F0B5F800286D
:10200000AAD00120A8E70000020001002DE9F84352
:10201000044600680D46DDE90897016898461646B3
:1020200041F4807101604B4600224FF001112046BF
:10203000009700F065F848B120680068C00502D537
:102040004FF4007020640320BDE8F883216805F098
:10205000FE0008613B464A461549204600F084F8D8
:1020600088B920684169806900903A46494620460F
:1020700000F0F8F848B1206C042804D12068016809
:1020800041F4007101600120DEE7F5B2B8F1010F03
:1020900009D02168300A08613A464946204600F0D6
:1020A000E1F80028E7D1206805610020CCE70000B6
:1020B0000200010070B516460D4604460DE02046AC
:1020C000FFF7C1FE08B1012070BD681C05D0FEF706
:1020D000EFFA801BA84207D835B120684069C04399
:1020E0004007ECD4002070BD002044F8300F2021C0
:1020F0006173A073216941F0200121612073E2E73F
:102100002DE9F0471E4690460D460446C1F30747A9
:10211000DDF8209008E0701C06D0FEF7C9FAA0EBAD
:102120000900B0420FD876B12068012F18D080691D
:1021300025EA00000004000C14D000214145EAD03B
:102140000020BDE8F087002044F8300F20216173A3
:10215000A073216941F02001216120730120F0E783
:102160004069E5E70121E9E72DE9F0479A46914604
:102170000E46044600254FF02008C1F3074725E02E
:1021800020684069C043400514D42068016841F4C8
:102190000071016021686FF480604861256384F8F4
:1021A0003D8084F83E50206C40F00400206484F8A8
:1021B0003C501FE0B9F1FF3F08D0FEF779FAA0EBE1
:1021C0000A0149450CD8B9F1000F09D02068012F48
:1021D00013D0806926EA00000004000C0BD0CFE782
:1021E00044F8305F84F80D80A573206940F020002A
:1021F000206125730120BDE8F0874069EAE72DE9F9
:10220000F041002590460E460446202717E040691D
:10221000C043C0060CD454F8301B6FF01000486166
:1022200044F810596777A577206A2062257717E070
:10223000FEF73EFAA0EB0800B04208D83EB1206895
:102240004169C9434906E2D40020BDE8F08144F861
:10225000305F6773A573206940F02000206125730B
:102260000120F2E770B516460D4604460DE0204603
:10227000FFF7E9FD08B1012070BD681C05D0FEF72D
:1022800017FA801BA84207D835B120684069C043BF
:102290000006ECD4002070BD002044F8300F20214F
:1022A0006173A073216941F0200121612073E2E78D
:1022B0002DE9F04F87B014216846FEF75EF86C48B0
:1022C0000024016841F010010160016801F0100173
:1022D0000591016841F004010160016801F0040109
:1022E0000591016841F020010160016801F02001C1
:1022F0000591016841F080010160016801F08001F1
:102300000591016841F001010160016801F00101DE
:102310000591016841F002010160016801F00201CC
:102320000591016841F008010160016801F00801B0
:102330000591016841F04001016000684D4E00F0D8
:1023400040004DF20C450590002229463046FEF72C
:10235000A9F944F2810A002251464748FEF7A2F942
:102360004FF4C05B002259464448FEF79BF9002217
:1023700040214348FEF796F901270095CDE9017405
:10238000694630460394FEF773F84FF400594FF452
:102390008810CDF80090CDE9010469463948FEF770
:1023A00067F832200225CDE9000502AA03264FF086
:1023B0000B0882E8500169463248FEF759F886203A
:1023C000CDE9000502AA694682E850012E48FEF7D1
:1023D0004FF8CDF800A0CDE9017469462648039472
:1023E000FEF746F802AA694682E85001CDE9009559
:1023F0002148FEF73DF8CDF800B0CDE901746946FB
:102400001E480394FEF734F840200090CDE9017493
:1024100069461B480394FEF72BF88020CDE90004A1
:10242000694617480294FEF723F84FF4E850CDE9C7
:10243000000502940A20CDE9036069461248FEF7C0
:1024400017F82802CDE9000469460F480294FEF708
:102450000FF84FF42050CDE9000502AA694682E842
:1024600050010748FEF704F807B0BDE8F08F000000
:10247000303802400010024000040240000C0240CC
:10248000001802400008024000000240134810B546
:10249000114901601249416000214FF4804281607E
:1024A000C0E9031241618161C1610162FEF746F931
:1024B00008B172B6FEE700210848FEF7FFF808B140
:1024C00072B6FEE700210548FEF719F9002801D091
:1024D00072B6FEE710BD0000005800401400002056
:1024E000A086010010B58CB00024079408940994CC
:1024F0001C2168460A94FDF740FF1B4819490160FA
:102500005321C0E9011442F20F71C0E90314846140
:10251000FFF767F908B172B6FEE74FF480500790F5
:1025200007A91148FFF7A8F908B172B6FEE70E48EF
:10253000FFF755FB08B172B6FEE76020009041F24C
:102540008830CDE901040022694607480494FFF76A
:10255000E0FA08B172B6FEE70348FFF7AFFA0CB035
:1025600010BD00000040014088000020FEE7FEE7AB
:1025700002460521002000F017B80000064910B5FA
:10258000086000F039F9302000F086F80120FFF7EC
:10259000EFFF002010BD00000000002002460721D0
:1025A000002000F001B800002DE9FF4715000E469D
:1025B000824600D0012501240DF10C090A27484666
:1025C000DFF850808DE89100234652468021D8F8EC
:1025D0000000FEF70DFAC8B904FA06F040F08001D9
:1025E0009DF80C00CDF80090884305F00101B14042
:1025F00001438DF80C10CDE901470123524680219B
:10260000D8F80000FEF7F0FA002800D0012004B04E
:10261000BDE8F0870000002030B413464FF480542A
:10262000621EA14200D311466BB139B191420FD065
:10263000A1F6FF7149428AB2002101E00022214641
:1026400030BC00F007B89142F8D009B10A46F3E770
:102650002246F1E71FB506238DF80C10090A8DF804
:102660000D108DF80E20110A03EB80008DF80F106D
:102670000A23042203A98DE80E00C0B202460548D1
:10268000012380210068FEF7AFFA002800D0012066
:1026900004B010BD000000201FB540F2F651884282
:1026A00001D303202DE0182801D8FF2029E000F0F5
:1026B000E2FE9FED211B53EC112B00F02BFF41ECB0
:1026C000100B53EC102B9FED1E0B51EC100B00F078
:1026D0004DFD9FED1D1B53EC112B01F05BF800F03D
:1026E0005FFC01F041F99FED1A1B53EC112B00F038
:1026F00089FC41EC100B00F033FB51EC100B00F0A7
:102700008DFE8DF80C00012000F070F801210A22E6
:1027100003A88DE8070010480B46FE2280210068C0
:10272000FEF762FA002000F061F80120FFF736FFA3
:1027300004B0002010BD0000000000000000B04008
:102740000000000084D77741000000000000F03F47
:10275000000000000000E03F0000002010B5B5EED2
:10276000C00A0446F1EE10FA174802D29FED170A8C
:1027700005E010EE101A814201DD9FED150A10EE02
:10278000100A01F0F1F89FED131B53EC112B00F030
:10279000C1FE9FED121B53EC112B00F0E7FC9FEDE7
:1027A000111B53EC112B00F02DFC00F0F9FB00EE97
:1027B000100A0022BCEEC00A10EE100A81B22046B8
:1027C000BDE81040FFF728BF0000344300000000C0
:1027D000000034430000000000607840000000006A
:1027E000008066400000000000805B40024604213B
:1027F0000020FFF7D9BE00001CB506208DF80400AC
:102800000A2000900548012301AA00210068FEF774
:1028100059F8002800D001201CBD00000000002055
:10282000704700002DE9F041044600680025C168AA
:10283000490618D4C16841F08001C160FDF738FF36
:1028400006464FF47A78042707E000BFFDF730FF13
:10285000801B404501D9677701252068C068400684
:1028600001D4002DF2D02846BDE8F08170B50446B1
:1028700000680025C16821F08001C160206880687F
:10288000800606D42046FEF77BFF10B10420607757
:102890000125284670BD7047FEF772BA30B593B077
:1028A00030216846FDF769FD14210CA8FDF765FD90
:1028B00021480024016841F080510160006800F067
:1028C000805011901D48016841F44041016000684A
:1028D000102100F4404011900A2000900120CDE921
:1028E00003010225CDE905050820CDE90740B42004
:1028F000CDE9090507200B906846FEF727FD08B1D2
:1029000072B6FEE7FEF7D6FA08B172B6FEE70F2000
:10291000CDE90C054FF4A050CDE90E404FF48050A6
:10292000109005210CA8FEF727FC002801D072B6F4
:10293000FEE713B030BD0000403802400070004098
:102940000248016841F470010160704788ED00E0C1
:102950000148FFF700B8000088000020F0B50268C9
:10296000254C264D264E274F274B4FF0804CA0423A
:1029700009D0604507D0A84205D0B04203D0B84284
:1029800001D0984204D122F0700E4A6842EA0E0249
:10299000A0421BD0604519D0A84217D0B04215D034
:1029A000B84213D0984211D0184DA8420ED0184DFD
:1029B000A8420BD0174DA84208D0174DA84205D009
:1029C000164DA84202D0164DA84203D122F44075FC
:1029D000CA682A434D6922F080022A4302608A684D
:1029E000C2620A688262A04201D0984201D109699C
:1029F000016301214161F0BD00000140000400407D
:102A000000080040000C004000040140004001406C
:102A1000004401400048014000180040001C0040F4
:102A20000020004010B501F01F030121046A994005
:102A30008C430462016A9A401143016210BD10B5D3
:102A4000846842EA032224F47F440A4322438260DA
:102A500010BD826822F070020A4342F007018160D3
:102A600070470000F0B5026A22F001020262036AB8
:102A700042688469124E24F073050C682C4323F0DD
:102A800002058B682B430D4DA84201D0B04205D101
:102A900023F00807CB683B4323F00403A84201D08E
:102AA000B04205D14D6922F4407215438A692A4328
:102AB00042608461496841630362F0BD00000140E7
:102AC00000040140F0B5026A22F010020262026ABC
:102AD000436884690D6824F4E64444EA05248D685B
:102AE00022F0200242EA05120F4D104EA84201D0FA
:102AF000B04206D1CF6822F0800242EA071222F0EB
:102B00004002A84201D0B04207D14D6923F440638E
:102B100043EA85038D6943EA85034360846149681C
:102B200081630262F0BD000000000140000401402A
:102B3000F0B5026A22F480720262026A4368C469D4
:102B400022F4007224F073050C68124E2C438D6839
:102B500042EA05220E4DA84201D0B04206D1CF680C
:102B600022F4006242EA072222F48062A84201D0E5
:102B7000B04207D14D6923F4405343EA05138D69F0
:102B800043EA05134360C4614968C1630262F0BD52
:102B9000000001400004014030B5026A22F4805276
:102BA0000262046A4268C3690D6823F4E64343EA9B
:102BB00005238D6824F4005444EA0534084DA842E6
:102BC00002D0084DA84204D14D6922F4804242EA65
:102BD00085124260C36149680164046230BD00002F
:102BE000000001400004014010B5036A046A24F0AB
:102BF00001040462846924F0F00444EA021423F01E
:102C00000A020A438461026210BD10B5036A23F010
:102C1000100303628369046A23F4704343EA0232B7
:102C200024F0A00343EA01118261016210BD00009B
:102C300070B5044600680169E26821F4405111430F
:102C400001612169A068E269084361691143084391
:102C50002168CA6849F20C639A430243CA6020683B
:102C60004169A26921F440711143416131492068F1
:102C7000884202D03049884202D1FEF727FB01E0AA
:102C8000FEF714FBE2690023192164253226B2F510
:102C9000004F626828D0A0FB0101930F9200FDF75E
:102CA000F5FA0146B0FBF5F06FF01802504301EB66
:102CB000800006EB0010B0FBF5F000F0F002B1FB75
:102CC000F5F002EB0012B1FBF5F06FF0180358437A
:102CD00001EB800006EB0010B0FBF5F000F00F00F8
:102CE00021681044886070BDA0FB010192185B410F
:102CF000FDF7CCFA0146B0FBF5F00201B1FBF5F0AF
:102D00006FF01803584301EB800006EBC000B0FBE6
:102D1000F5F000F0F80002EB4002B1FBF5F058438B
:102D200001EB800006EBC000B0FBF5F000F00700FF
:102D3000D6E700000010014000140140FEE709073B
:102D4000090E002804DB00F1E02080F80014704731
:102D500000F00F0000F1E02080F8141D7047000023
:102D60002DE9F0412DED020B9FED3D0B2DED028B7A
:102D70009FED3D8BDDE90254C4F30A50A0F2FF360B
:102D8000142E37DA002E18DA53EC102B9DED020BBF
:102D900051EC100B00F036F953EC182B00F0B8FC96
:102DA00057D2002CA4BF0024254652DA24F000405C
:102DB000284318BF2E4C4CD01AE02E4820FA06F7B4
:102DC00004EA070028431FD053EC102B9DED020BA3
:102DD00051EC100B00F016F953EC182B00F098FC96
:102DE00037D2002C03DA4FF48010F0400444BC4387
:102DF00000252EE0332E07DCA6F114004FF0FF3142
:102E000021FA00F73D4206D19DED020BBDEC028B8D
:102E100002B0BDE8F08153EC102B9DED020B51EC9C
:102E2000100B00F0ABFC53EC182B00F071FC10D22F
:102E3000002C0DDA142E08BF641C09D0C6F1340032
:102E4000012101FA00F02844A84238BF641C05465D
:102E5000BD43CDE902549DED020BD7E70000000011
:102E60009C7500883CE4377E0000000000000000F4
:102E70000000F0BFFFFF0F002DED028BFDF788FF74
:102E8000FFF70CFDFFF714FAFFF700FB3E483D4942
:102E90000024C0E900147F218160FF21C0E90314F0
:102EA00044618461FEF708FC08B172B6FEE7FFF7E3
:102EB00019FB3548354968304FF4E1350160C0E908
:102EC00001540C26C460C0E904468461C461FEF765
:102ED0001BFF08B172B6FEE72B482D49AC300160EC
:102EE000C0E90154C460C0E904468461C461FEF7CE
:102EF0000BFF08B172B6FEE7234800212030FEF731
:102F00009DFE21485438FFF739FB9FED228A0020AF
:102F1000B0EE480AFFF722FCB0EE480A0120FFF7A6
:102F20001DFCB0EE480A0220FFF718FC4FF47A703F
:102F3000FDF78CFA184C00224FF480612046FDF713
:102F4000B1FB0022A1142046FDF7ACFB00224FF498
:102F500080412046FDF7A6FB00224FF400412046A9
:102F6000FDF7A0FB0D4E40F6660500220821204625
:102F7000FDF798FB012204212046FDF793FB7563C2
:102F8000F3E70000002800406800002000500040E7
:102F900000480040000000000010024000400140D6
:102FA00021F00042A2F16052B2F5801F01F000430F
:102FB00028BFD2F17F6C0BD95FEA001C43EAC20242
:102FC00042EB507018BF704728BF20F001007047D7
:102FD000B2F5801FBCBF184670474FEA410C1CF584
:102FE000001F02D2084600F035BD70B500F03CFB72
:102FF00000000089FFF7F6BF4FF00040A0F5800009
:103000007047000010B591EA030F48BF83F00043FA
:1030100000F1C883841A71EB030C05D2121943EB3B
:103020000C03001B61EB0C01DFF824E14FEA1154A3
:10303000A4EB135C1EEA430F18BF9EEA445F73D0F3
:1030400023EA0E03DCF1200E21EA045143F480133D
:1030500032D322FA0CFE10EB0E0023FA0CFE41EBE9
:103060000E01CCF1200E03FA0EFE10EB0E0051F112
:103070000001B1F5801FCCF1200E32D201EB0451DA
:1030800012FA0EF2BDE8104058BF7047401C38BF1E
:103090005FEA420218BF7047002814BF20F0010009
:1030A00041F100014FEA410313F5001F38BF70479B
:1030B000A1F1C04100F026BB012A43EB0302ACF1B1
:1030C000200CDCF11F0E32BF4FF0000E23FA0CF380
:1030D00010EB030041EB0451B4EB115FD0D0A1EB36
:1030E000045101F5801149085FEA300001EB0451F9
:1030F0000ED350F1000038BF12FA0EFE08D1BDE821
:103100001040C9E7401C38BF5FEA4202CAD1C3E79A
:10311000BDE810404FEA410313F5001F38BF704768
:10312000A1F1C04100F0EEBA9EEA445F08D011EA76
:103130005E0FBDE8104004BF01F000410020704761
:10314000BDE8104070B500F08FFA00BF64FBBE3ED2
:103150000000E0FF491058BFC1F140415B1058BF6B
:10316000C3F140438B42EFF3008070472DE9C0412B
:1031700030B4DFF8A0C23CEA111418BF3CEA1314C3
:1031800000F0EC8081EA03051CEA111444EAD574CE
:1031900018BF1CEA131500F0C780A4EB05044FF01C
:1031A000004545EAC12145EAC32341EA505143EABB
:1031B000525304F17F74994204F500344FEAC02061
:1031C0004FEAC22208BF904200F09C804FEA13658C
:1031D0000FF24016765D4FEA134506FB05F7C7F17F
:1031E000807706FB07F74FEAD737A7FB03687642DD
:1031F000C8F58038A7FB06CE38BFA8F1010807FB49
:1032000008E64FF0000EA6FB028CE6FB03CEDCF1D5
:10321000000CCEF1004E38BFAEF1010EA6FB0C58EB
:103220004FF000074FF00005E6FB0E87A1FB08C634
:10323000A0FB07CE16EB0E0645F10005E1FB076586
:1032400015F1E04E7EBFA4F580345FEA46066D417D
:1032500016F1800745F100054FEA17274FEA066689
:1032600047EA0567A6F1DE46B6F1805F4FEA15250D
:103270001FD9384624F0010C05EBC471BCF1FE6F78
:1032800001EB0C1102D8F0BCBDE8008124425CBF08
:1032900001F5801E9EEAC47F02D4F0BCBDE8008127
:1032A000244238D4F0BCA1F1C041BDE8004100F097
:1032B00029BA4FEAD22242EA43524FEAD323A7FB6C
:1032C00002864FEAD02040EA415007FB03661EEA1F
:1032D0000E0F4FEAD12105FB026658BFA6EB005640
:1032E000B6EB00564FEA520E4EEAC37E18EB0E0EB6
:1032F00056EB530EBDD518EB02085E417F1C55F10D
:103300000005B6E74FF480154FF000074FF00006B8
:103310004FF00008ADE7F0BC4FF0000001F1C041F4
:1033200001F00041BDE8008111EA0C1F0CEA131501
:1033300000D00CE013EA0C1F00F025804FF00000D5
:10334000F0BC81EA030101F00041BDE80081F0BC5E
:10335000BDE8004181EA030100F0D4B9F0BCBDE84A
:10336000004170B500F080F9097EFC3E00F007B81E
:1033700081EA03014FF0000001F00041704781EA4B
:10338000030100F0BFB9F0BCBDE800414FF0000000
:1033900021497047FFFDFBF9F7F5F4F2F0EEEDEB94
:1033A000E9E8E6E4E3E1E0DEDDDBDAD8D7D5D4D343
:1033B000D1D0CFCDCCCBCAC8C7C6C5C4C2C1C0BF8F
:1033C000BEBDBCBBBAB9B8B7B6B5B4B3B2B1B0AF95
:1033D000AEADACABAAA9A8A8A7A6A5A4A3A3A2A179
:1033E000A09F9F9E9D9C9C9B9A9999989797969534
:1033F00095949393929191908F8F8E8E8D8C8C8BD0
:103400008B8A898988888787868585848483838257
:10341000828181800000FF070000F87F4FEA11538E
:10342000A3F58063D3F11E03A8BFD3F1200C08DB02
:103430004FF0004242EAC12252EA505232FA03F0FF
:10344000704709420BD4102BC4BF0020704703F50E
:10345000787CBCF1FF3F05D04FF0FF3070474FF054
:103460000000704770B500F0FFF800BF499224805B
:1034700000207047F0E7B0FA80F310FA03F10AD0A9
:10348000C3F11D0303F580634FEA41504FEA035235
:1034900002EBD12170474FF00000704751EA030C56
:1034A00017D41CF5801F58BFBCF5801F00F10680A3
:1034B000994218BF704708BF9042704707D711F56F
:1034C000801F58BF13F5801F19D499427047894255
:1034D00070471CF5801F08D5BCF5801FF7D58B42BF
:1034E00018BF704708BF824270474FF4001C1CEBA6
:1034F000410F38BF1CEB430F01D28B42704770B5B0
:1035000000F0B2F8922449004FF000514FF0805380
:10351000FFF720BEDFF848C170B51CEA111E1EBFC0
:103520001CEA13159EEA0C0F95EA0C0F00F06F8051
:1035300081EA030423EA4C134EEAD47E21EA4C11BB
:1035400041F4801143F48013AE44A1FB024CA0FB74
:103550000365AEF17F7E361955EB0C05A1FB034CDC
:103560004CF10003A0FB021C16EB0C06654153F165
:103570000003094218BF46F0010613F4007F0BD187
:103580004FEA03314FEA0530340341EA155140EA6E
:1035900016506FF003020AE04FEAC3214FEAC5203C
:1035A000F40241EA555140EA56506FF0020202EB34
:1035B0002E4201EB025585EACE710AD05FEA440C37
:1035C00018BF24F0004450F1000041F1000120EA4E
:1035D000D47040F2FE7C624500D270BDA84214BF98
:1035E0004FF080444FF04044002E08BF0024BEF14D
:1035F000806FA8BFA1F1C041BDE8704080F2828019
:103600004FF0000001F1C04101F0004170479EEA17
:103610000C0F0CEA131518BF95EA0C0F06D04FF0EB
:10362000000081EA030E0EF0004170BD00F01CF8AE
:103630008900013E00F007B800F009B84FEA430CDA
:103640005FEA5C5C08D081EA030100F05BB84FEAF6
:10365000410C5FEA5C5CF6D14FF000000149704715
:103660000000FF070000F87F0EF1020E2EF0030E9F
:103670005EF8046B364205D4012A43EB030515F5C9
:10368000001F12D8012841EB010C1CF5001F0CD8BB
:103690000ED14FEAD17C15F5001F0CEB4C0C0CF150
:1036A000020C08BF4CEBD37C04E04FF0080C01E0A7
:1036B0004FEAD37C0CEB4C0526FA05F606F007061C
:1036C000B6F1040C06D20EEB860CBDE870404CF04F
:1036D000010C6047DFE80CF0090B02024FF00041DB
:1036E0004FF00000A1F5002170BD194610460128D9
:1036F00051EB010418BFD4F5001484BF002001F081
:10370000004170BD0808A0F500114FEA3101704773
:1037100053EA010C17D41CF5801F58BFBCF5801F5D
:1037200000F106808B4218BF704708BF8242704785
:1037300007D713F5801F58BF11F5801F19D48B428E
:1037400070479B4270471CF5801F08D5BCF5801F51
:10375000F7D5994218BF704708BF904270474FF4A1
:10376000001C1CEB430F38BF1CEB410F01D29942E8
:1037700070470FB40CBC03BCFFF7C1BE91EA030F46
:1037800010B581F000413FF545AC83F0004300F0F7
:1037900009B8000010B591EA030F48BF83F0004359
:1037A0003FF538AC841A71EB030C07D212198CF078
:1037B000004C43EB0C03001B61EB0C01DFF8A4E1B0
:1037C0004FEA1154A4EB135C1EEA430F18BF9EEAA4
:1037D000445F00F0B08023EA6E03524221EA0451B4
:1037E000C3EB6E0338BF5B1EDCF1200E25D322FA3B
:1037F0000CFE10EB0E0043FA0CFE41EB0E01CCF177
:10380000200E03FA0EFE10EB0E0051F10001CCF178
:10381000200E29D412FA0EF201EB0451BDE810403B
:1038200058BF7047401C1CBFB2F1004F70470028C2
:103830000CBF491C20F00100704712EB020E43EB55
:10384000030218BF4FF0010E4EEA4202ACF1200C09
:10385000DCF11E0E54D943FA0CFE10EB0E0051F1B0
:10386000FF31CCF11E0ED5D50EF1010E12FA0EFE6F
:10387000404141EB010101EB445C5FEA5C5C10D923
:1038800010EBDE7001EB045138BFBEF1004FBDE814
:10389000104018BF704700280CBF491C20F00100E1
:1038A000704730D24FEAD42C11F5001124F4006493
:1038B0001BD0B1FA81F20B3AA41AA41ED2F1200354
:1038C000914030FA03F31943904001EBCC71002C86
:1038D00001EB0451BDE81040A8BF704701F1C041A1
:1038E0004FF0000001F000417047B0FA80F310FA89
:1038F00003F100D110BDE41A173C4805C90AE4E7FA
:1039000001EB045110BD491001EB0451BDE810401A
:103910004FEA300002E04FF0000170474A0008BF54
:103920000042F8D0B2F5001F28BF704701F00041F7
:103930004FF0000070479EEA445F07D011EA5E0F27
:10394000BDE8104004BF002100207047BDE81040D2
:1039500070B5FFF789FE00BF40DFF63E83F00041FF
:10396000104670470000E0FF43004FEAD30C4FEAD7
:103970003C0C43401FBF40070CF1605113F0FE4F59
:1039800070471CF0006F03D100200CF0004170471D
:103990000CF0004343EA507010B540EACC0000F050
:1039A0000EF800BF000000924FEA0001FFF7AABE28
:1039B0004FF000414FF00000A1F5002170470EF1DB
:1039C000020E2EF0030E5EF8044B244204D44FEA9C
:1039D0004102B2F17F4F11D84FEA4003B3F17F4F5C
:1039E0000CD80ED14FEAD07CB2F17F4F0CEB4C0CCF
:1039F0000CF1020C08BF4CEBD17C04E04FF0080C3A
:103A000001E04FEAD17C0CEB4C0324FA03F404F000
:103A10000704B4F1040C06D20EEB840CBDE8104090
:103A20004CF0010C6047DFE80CF0070802024FF091
:103A30000040A0F5800010BD0846420018BFD2F13A
:103A4000807288BF00F0004010BD4FF04070E1EE82
:103A5000100A7047FF2141EAD050C00570470000AE
:103A6000000000000000010203040607080900002E
:103A70000000010203040000983A00080000002042
:103A800014000000E8010008AC3A0008140000200F
:103A9000A40700000402000800000000010000006C
:0C3AA00010000000000000000024F400F2
:04000005080001AD41
:00000001FF
